{"abi":[{"type":"constructor","inputs":[{"name":"_currency","type":"address","internalType":"address"}],"stateMutability":"nonpayable"},{"type":"function","name":"assertMarket","inputs":[{"name":"marketId","type":"bytes32","internalType":"bytes32"},{"name":"assertedOutcome","type":"string","internalType":"string"}],"outputs":[{"name":"assertionId","type":"bytes32","internalType":"bytes32"}],"stateMutability":"nonpayable"},{"type":"function","name":"assertedMarkets","inputs":[{"name":"","type":"bytes32","internalType":"bytes32"}],"outputs":[{"name":"asserter","type":"address","internalType":"address"},{"name":"marketId","type":"bytes32","internalType":"bytes32"}],"stateMutability":"view"},{"type":"function","name":"assertionDisputedCallback","inputs":[{"name":"assertionId","type":"bytes32","internalType":"bytes32"}],"outputs":[],"stateMutability":"nonpayable"},{"type":"function","name":"assertionLiveness","inputs":[],"outputs":[{"name":"","type":"uint64","internalType":"uint64"}],"stateMutability":"view"},{"type":"function","name":"assertionResolvedCallback","inputs":[{"name":"assertionId","type":"bytes32","internalType":"bytes32"},{"name":"assertedTruthfully","type":"bool","internalType":"bool"}],"outputs":[],"stateMutability":"nonpayable"},{"type":"function","name":"buy","inputs":[{"name":"marketId","type":"bytes32","internalType":"bytes32"},{"name":"outcomeToken","type":"address","internalType":"address"},{"name":"currencyAmount","type":"uint256","internalType":"uint256"}],"outputs":[],"stateMutability":"nonpayable"},{"type":"function","name":"createOutcomeTokens","inputs":[{"name":"marketId","type":"bytes32","internalType":"bytes32"},{"name":"tokensToCreate","type":"uint256","internalType":"uint256"}],"outputs":[],"stateMutability":"nonpayable"},{"type":"function","name":"currency","inputs":[],"outputs":[{"name":"","type":"address","internalType":"contract IERC20"}],"stateMutability":"view"},{"type":"function","name":"defaultIdentifier","inputs":[],"outputs":[{"name":"","type":"bytes32","internalType":"bytes32"}],"stateMutability":"view"},{"type":"function","name":"getMarket","inputs":[{"name":"marketId","type":"bytes32","internalType":"bytes32"}],"outputs":[{"name":"","type":"tuple","internalType":"struct PredictXOwner.Market","components":[{"name":"resolved","type":"bool","internalType":"bool"},{"name":"assertedOutcomeId","type":"bytes32","internalType":"bytes32"},{"name":"outcome1Token","type":"address","internalType":"contract ExpandedIERC20"},{"name":"outcome2Token","type":"address","internalType":"contract ExpandedIERC20"},{"name":"outcome1","type":"bytes","internalType":"bytes"},{"name":"outcome2","type":"bytes","internalType":"bytes"},{"name":"description","type":"bytes","internalType":"bytes"}]},{"name":"outcome1Balance","type":"uint256","internalType":"uint256"},{"name":"outcome2Balance","type":"uint256","internalType":"uint256"}],"stateMutability":"view"},{"type":"function","name":"initializeMarket","inputs":[{"name":"outcome1","type":"string","internalType":"string"},{"name":"outcome2","type":"string","internalType":"string"},{"name":"description","type":"string","internalType":"string"},{"name":"marketId","type":"bytes32","internalType":"bytes32"}],"outputs":[],"stateMutability":"nonpayable"},{"type":"function","name":"initializeMarketAndCreateOutcomeTokens","inputs":[{"name":"outcome1","type":"string","internalType":"string"},{"name":"outcome2","type":"string","internalType":"string"},{"name":"description","type":"string","internalType":"string"},{"name":"marketId","type":"bytes32","internalType":"bytes32"},{"name":"tokensToCreate","type":"uint256","internalType":"uint256"}],"outputs":[],"stateMutability":"nonpayable"},{"type":"function","name":"markets","inputs":[{"name":"","type":"bytes32","internalType":"bytes32"}],"outputs":[{"name":"resolved","type":"bool","internalType":"bool"},{"name":"assertedOutcomeId","type":"bytes32","internalType":"bytes32"},{"name":"outcome1Token","type":"address","internalType":"contract ExpandedIERC20"},{"name":"outcome2Token","type":"address","internalType":"contract ExpandedIERC20"},{"name":"outcome1","type":"bytes","internalType":"bytes"},{"name":"outcome2","type":"bytes","internalType":"bytes"},{"name":"description","type":"bytes","internalType":"bytes"}],"stateMutability":"view"},{"type":"function","name":"redeemOutcomeTokens","inputs":[{"name":"marketId","type":"bytes32","internalType":"bytes32"},{"name":"tokensToRedeem","type":"uint256","internalType":"uint256"}],"outputs":[],"stateMutability":"nonpayable"},{"type":"function","name":"sell","inputs":[{"name":"marketId","type":"bytes32","internalType":"bytes32"},{"name":"outcomeToken","type":"address","internalType":"address"},{"name":"currencyAmount","type":"uint256","internalType":"uint256"}],"outputs":[],"stateMutability":"nonpayable"},{"type":"function","name":"settleOutcomeTokens","inputs":[{"name":"marketId","type":"bytes32","internalType":"bytes32"}],"outputs":[{"name":"payout","type":"uint256","internalType":"uint256"}],"stateMutability":"nonpayable"},{"type":"function","name":"unresolvable","inputs":[],"outputs":[{"name":"","type":"bytes","internalType":"bytes"}],"stateMutability":"view"},{"type":"event","name":"MarketAsserted","inputs":[{"name":"marketId","type":"bytes32","indexed":true,"internalType":"bytes32"},{"name":"assertedOutcome","type":"string","indexed":false,"internalType":"string"},{"name":"assertionId","type":"bytes32","indexed":true,"internalType":"bytes32"}],"anonymous":false},{"type":"event","name":"MarketInitialized","inputs":[{"name":"marketId","type":"bytes32","indexed":true,"internalType":"bytes32"},{"name":"outcome1","type":"string","indexed":false,"internalType":"string"},{"name":"outcome2","type":"string","indexed":false,"internalType":"string"},{"name":"description","type":"string","indexed":false,"internalType":"string"},{"name":"outcome1Token","type":"address","indexed":false,"internalType":"address"},{"name":"outcome2Token","type":"address","indexed":false,"internalType":"address"}],"anonymous":false},{"type":"event","name":"MarketResolved","inputs":[{"name":"marketId","type":"bytes32","indexed":true,"internalType":"bytes32"}],"anonymous":false},{"type":"event","name":"TokensBought","inputs":[{"name":"marketId","type":"bytes32","indexed":true,"internalType":"bytes32"},{"name":"account","type":"address","indexed":true,"internalType":"address"},{"name":"currencyAmount","type":"uint256","indexed":false,"internalType":"uint256"},{"name":"outcomeTokensBought","type":"uint256","indexed":false,"internalType":"uint256"}],"anonymous":false},{"type":"event","name":"TokensCreated","inputs":[{"name":"marketId","type":"bytes32","indexed":true,"internalType":"bytes32"},{"name":"account","type":"address","indexed":true,"internalType":"address"},{"name":"tokensCreated","type":"uint256","indexed":false,"internalType":"uint256"}],"anonymous":false},{"type":"event","name":"TokensRedeemed","inputs":[{"name":"marketId","type":"bytes32","indexed":true,"internalType":"bytes32"},{"name":"account","type":"address","indexed":true,"internalType":"address"},{"name":"tokensRedeemed","type":"uint256","indexed":false,"internalType":"uint256"}],"anonymous":false},{"type":"event","name":"TokensSettled","inputs":[{"name":"marketId","type":"bytes32","indexed":true,"internalType":"bytes32"},{"name":"account","type":"address","indexed":true,"internalType":"address"},{"name":"payout","type":"uint256","indexed":false,"internalType":"uint256"},{"name":"outcome1Tokens","type":"uint256","indexed":false,"internalType":"uint256"},{"name":"outcome2Tokens","type":"uint256","indexed":false,"internalType":"uint256"}],"anonymous":false},{"type":"event","name":"TokensSold","inputs":[{"name":"marketId","type":"bytes32","indexed":true,"internalType":"bytes32"},{"name":"account","type":"address","indexed":true,"internalType":"address"},{"name":"currencyAmount","type":"uint256","indexed":false,"internalType":"uint256"},{"name":"outcomeTokensSold","type":"uint256","indexed":false,"internalType":"uint256"}],"anonymous":false}],"bytecode":{"object":"0x60c060405234801561001057600080fd5b50604051614d0f380380614d0f83398101604081905261002f91610040565b6001600160a01b0316608052610070565b60006020828403121561005257600080fd5b81516001600160a01b038116811461006957600080fd5b9392505050565b60805160a051614c506100bf60003960006102ba0152600081816102e1015281816103e301528181610d19015281816110f2015281816111a5015281816115ec0152611acc0152614c506000f3fe608060405234801561001057600080fd5b506004361061010b5760003560e01c8063b6365817116100a2578063d410764511610071578063d410764514610263578063d448a4ec146102a4578063d509b017146102b5578063e5a6b10f146102dc578063f1b156b21461031b57600080fd5b8063b6365817146101f9578063b75d4e241461020c578063c3c95c7b1461022e578063c7d8941f1461025057600080fd5b806378133ffd116100de57806378133ffd146101ad5780639d2edf46146101c05780639d5bacfd146101d3578063acd98e29146101e657600080fd5b80630880c65a1461011057806337aa904014610151578063565429a8146101665780637564912b14610187575b600080fd5b61013b6040518060400160405280600c81526020016b556e7265736f6c7661626c6560a01b81525081565b60405161014891906128f2565b60405180910390f35b61016461015f3660046129b1565b61032e565b005b610179610174366004612a57565b61058f565b604051908152602001610148565b61019a610195366004612a9e565b61078a565b6040516101489796959493929190612ab7565b6101646101bb366004612b26565b610970565b6101646101ce366004612b6a565b610fbd565b6101646101e1366004612b6a565b611156565b6101796101f4366004612a9e565b611346565b610164610207366004612b26565b611660565b610215611c2081565b60405167ffffffffffffffff9091168152602001610148565b61024161023c366004612a9e565b611cf5565b60405161014893929190612b8c565b61016461025e366004612c3c565b61202f565b610296610271366004612a9e565b600160208190526000918252604090912080549101546001600160a01b039091169082565b604051610148929190612cd8565b6101646102b2366004612a9e565b50565b6101797f000000000000000000000000000000000000000000000000000000000000000081565b6103037f000000000000000000000000000000000000000000000000000000000000000081565b6040516001600160a01b039091168152602001610148565b610164610329366004612cff565b61253c565b60405163c7d8941f60e01b8152309063c7d8941f90610357908890889088908890600401612d2f565b600060405180830381600087803b15801561037157600080fd5b505af1158015610385573d6000803e3d6000fd5b505050600083815260208190526040902060028101549091506001600160a01b03166103cc5760405162461bcd60e51b81526004016103c390612d7a565b60405180910390fd5b6040516323b872dd60e01b81526001600160a01b037f000000000000000000000000000000000000000000000000000000000000000016906323b872dd9061041c90339030908790600401612da9565b6020604051808303816000875af115801561043b573d6000803e3d6000fd5b505050506040513d601f19601f8201168201806040525081019061045f9190612dcd565b5060028101546040516340c10f1960e01b81526001600160a01b03909116906340c10f19906104949033908690600401612cd8565b6020604051808303816000875af11580156104b3573d6000803e3d6000fd5b505050506040513d601f19601f820116820180604052508101906104d79190612dcd565b5060038101546040516340c10f1960e01b81526001600160a01b03909116906340c10f199061050c9033908690600401612cd8565b6020604051808303816000875af115801561052b573d6000803e3d6000fd5b505050506040513d601f19601f8201168201806040525081019061054f9190612dcd565b50604051828152339084907fa1a00dd4222724941c9d085479758183928d765e55583d239c414b0f09c5da4b9060200160405180910390a3505050505050565b600082815260208190526040812060028101546001600160a01b03166105c75760405162461bcd60e51b81526004016103c390612d7a565b825160208401206001820154156106205760405162461bcd60e51b815260206004820152601c60248201527f417373657274696f6e20616374697665206f72207265736f6c7665640000000060448201526064016103c3565b816004016040516106319190612e24565b604051809103902081148061065d5750816005016040516106529190612e24565b604051809103902081145b806106ab575060408051808201909152600c81526b556e7265736f6c7661626c6560a01b6020909101527fffa5c42fda42ac0bea9ca62d68dcc08a4b371f06b6e71afb99dee2ce276cbe4e81145b6106f75760405162461bcd60e51b815260206004820152601860248201527f496e76616c6964206173736572746564206f7574636f6d65000000000000000060448201526064016103c3565b6001828101829055604080518082018252338152602080820189815260008681529185905290839020915182546001600160a01b0319166001600160a01b0390911617825551920191909155519092508290819086907fc55c01025649b2056980da18d75125fed301d8a2f7cf93d2151fab07bfe2a4929061077a9088906128f2565b60405180910390a3505092915050565b6000602081905290815260409020805460018201546002830154600384015460048501805460ff9095169593946001600160a01b039384169492909316926107d190612dea565b80601f01602080910402602001604051908101604052809291908181526020018280546107fd90612dea565b801561084a5780601f1061081f5761010080835404028352916020019161084a565b820191906000526020600020905b81548152906001019060200180831161082d57829003601f168201915b50505050509080600501805461085f90612dea565b80601f016020809104026020016040519081016040528092919081815260200182805461088b90612dea565b80156108d85780601f106108ad576101008083540402835291602001916108d8565b820191906000526020600020905b8154815290600101906020018083116108bb57829003601f168201915b5050505050908060060180546108ed90612dea565b80601f016020809104026020016040519081016040528092919081815260200182805461091990612dea565b80156109665780601f1061093b57610100808354040283529160200191610966565b820191906000526020600020905b81548152906001019060200180831161094957829003601f168201915b5050505050905087565b600083815260208190526040812060028101549091906001600160a01b038581169116146109ab5760038201546001600160a01b03166109ba565b60028201546001600160a01b03165b60028301549091506000906001600160a01b038681169116146109ea5760028301546001600160a01b03166109f9565b60038301546001600160a01b03165b60038401546040516370a0823160e01b81523060048201529192506000916001600160a01b03909116906370a0823190602401602060405180830381865afa158015610a49573d6000803e3d6000fd5b505050506040513d601f19601f82011682018060405250810190610a6d9190612e99565b60028501546040516370a0823160e01b81523060048201526001600160a01b03909116906370a0823190602401602060405180830381865afa158015610ab7573d6000803e3d6000fd5b505050506040513d601f19601f82011682018060405250810190610adb9190612e99565b610ae59190612ec8565b60028501546040516340c10f1960e01b81529192506001600160a01b0316906340c10f1990610b1a9030908990600401612cd8565b6020604051808303816000875af1158015610b39573d6000803e3d6000fd5b505050506040513d601f19601f82011682018060405250810190610b5d9190612dcd565b5060038401546040516340c10f1960e01b81526001600160a01b03909116906340c10f1990610b929030908990600401612cd8565b6020604051808303816000875af1158015610bb1573d6000803e3d6000fd5b505050506040513d601f19601f82011682018060405250810190610bd59190612dcd565b506040516370a0823160e01b81523060048201526000906001600160a01b038416906370a0823190602401602060405180830381865afa158015610c1d573d6000803e3d6000fd5b505050506040513d601f19601f82011682018060405250810190610c419190612e99565b610c4b9083612ee5565b6040516370a0823160e01b81523060048201526001600160a01b038616906370a0823190602401602060405180830381865afa158015610c8f573d6000803e3d6000fd5b505050506040513d601f19601f82011682018060405250810190610cb39190612e99565b610cbd9190612f07565b905060008111610d025760405162461bcd60e51b815260206004820152601060248201526f6e6f20746f6b656e7320746f2062757960801b60448201526064016103c3565b6040516323b872dd60e01b81526001600160a01b037f000000000000000000000000000000000000000000000000000000000000000016906323b872dd90610d5290339030908b90600401612da9565b6020604051808303816000875af1158015610d71573d6000803e3d6000fd5b505050506040513d601f19601f82011682018060405250810190610d959190612dcd565b610dd85760405162461bcd60e51b815260206004820152601460248201527318dbdcdd081d1c985b9cd9995c8819985a5b195960621b60448201526064016103c3565b6040516323b872dd60e01b81526001600160a01b038516906323b872dd90610e0890309033908690600401612da9565b6020604051808303816000875af1158015610e27573d6000803e3d6000fd5b505050506040513d601f19601f82011682018060405250810190610e4b9190612dcd565b5060038501546040516370a0823160e01b81523060048201526001600160a01b03909116906370a0823190602401602060405180830381865afa158015610e96573d6000803e3d6000fd5b505050506040513d601f19601f82011682018060405250810190610eba9190612e99565b60028601546040516370a0823160e01b81523060048201526001600160a01b03909116906370a0823190602401602060405180830381865afa158015610f04573d6000803e3d6000fd5b505050506040513d601f19601f82011682018060405250810190610f289190612e99565b610f329190612ec8565b8214610f755760405162461bcd60e51b81526020600482015260126024820152711a5b9d985c9a585b9d081d9a5bdb185d195960721b60448201526064016103c3565b604080518781526020810183905233918a917fbae7e1316b4f1441b983370f279ca826176ccca47075ba2f96dfaea7055312e491015b60405180910390a35050505050505050565b600082815260208190526040902060028101546001600160a01b0316610ff55760405162461bcd60e51b81526004016103c390612d7a565b600281015460405163079cc67960e41b81526001600160a01b03909116906379cc6790906110299033908690600401612cd8565b6020604051808303816000875af1158015611048573d6000803e3d6000fd5b505050506040513d601f19601f8201168201806040525081019061106c9190612dcd565b50600381015460405163079cc67960e41b81526001600160a01b03909116906379cc6790906110a19033908690600401612cd8565b6020604051808303816000875af11580156110c0573d6000803e3d6000fd5b505050506040513d601f19601f820116820180604052508101906110e49190612dcd565b506111196001600160a01b037f00000000000000000000000000000000000000000000000000000000000000001633846125d5565b604051828152339084907f48bc562be531fa6322b3cb3a9333ca19d2e3c63c1793fcb5ce885d02d6e0226e906020015b60405180910390a3505050565b600082815260208190526040902060028101546001600160a01b031661118e5760405162461bcd60e51b81526004016103c390612d7a565b6040516323b872dd60e01b81526001600160a01b037f000000000000000000000000000000000000000000000000000000000000000016906323b872dd906111de90339030908790600401612da9565b6020604051808303816000875af11580156111fd573d6000803e3d6000fd5b505050506040513d601f19601f820116820180604052508101906112219190612dcd565b5060028101546040516340c10f1960e01b81526001600160a01b03909116906340c10f19906112569033908690600401612cd8565b6020604051808303816000875af1158015611275573d6000803e3d6000fd5b505050506040513d601f19601f820116820180604052508101906112999190612dcd565b5060038101546040516340c10f1960e01b81526001600160a01b03909116906340c10f19906112ce9033908690600401612cd8565b6020604051808303816000875af11580156112ed573d6000803e3d6000fd5b505050506040513d601f19601f820116820180604052508101906113119190612dcd565b50604051828152339084907fa1a00dd4222724941c9d085479758183928d765e55583d239c414b0f09c5da4b90602001611149565b6000818152602081905260408120805460ff1661139b5760405162461bcd60e51b815260206004820152601360248201527213585c9ad95d081b9bdd081c995cdbdb1d9959606a1b60448201526064016103c3565b60028101546040516370a0823160e01b81523360048201526000916001600160a01b0316906370a0823190602401602060405180830381865afa1580156113e6573d6000803e3d6000fd5b505050506040513d601f19601f8201168201806040525081019061140a9190612e99565b60038301546040516370a0823160e01b81523360048201529192506000916001600160a01b03909116906370a0823190602401602060405180830381865afa15801561145a573d6000803e3d6000fd5b505050506040513d601f19601f8201168201806040525081019061147e9190612e99565b9050826004016040516114919190612e24565b60405180910390208360010154036114ab578193506114ef565b826005016040516114bc9190612e24565b60405180910390208360010154036114d6578093506114ef565b60026114e28284612f1a565b6114ec9190612ee5565b93505b600283015460405163079cc67960e41b81526001600160a01b03909116906379cc6790906115239033908690600401612cd8565b6020604051808303816000875af1158015611542573d6000803e3d6000fd5b505050506040513d601f19601f820116820180604052508101906115669190612dcd565b50600383015460405163079cc67960e41b81526001600160a01b03909116906379cc67909061159b9033908590600401612cd8565b6020604051808303816000875af11580156115ba573d6000803e3d6000fd5b505050506040513d601f19601f820116820180604052508101906115de9190612dcd565b506116136001600160a01b037f00000000000000000000000000000000000000000000000000000000000000001633866125d5565b6040805185815260208101849052908101829052339086907f25ffdbe909949aba86fccc6c8a3f5d94d7ab78bc67a3cc1327908845235874eb9060600160405180910390a3505050919050565b600083815260208190526040812060028101549091906001600160a01b0385811691161461169b5760038201546001600160a01b03166116aa565b60028201546001600160a01b03165b60028301549091506000906001600160a01b038681169116146116da5760028301546001600160a01b03166116e9565b60038301546001600160a01b03165b60038401546040516370a0823160e01b81523060048201529192506000916001600160a01b03909116906370a0823190602401602060405180830381865afa158015611739573d6000803e3d6000fd5b505050506040513d601f19601f8201168201806040525081019061175d9190612e99565b60028501546040516370a0823160e01b81523060048201526001600160a01b03909116906370a0823190602401602060405180830381865afa1580156117a7573d6000803e3d6000fd5b505050506040513d601f19601f820116820180604052508101906117cb9190612e99565b6117d59190612ec8565b6040516370a0823160e01b81523060048201529091506000906001600160a01b038516906370a0823190602401602060405180830381865afa15801561181f573d6000803e3d6000fd5b505050506040513d601f19601f820116820180604052508101906118439190612e99565b6040516370a0823160e01b815230600482015287906001600160a01b038616906370a0823190602401602060405180830381865afa158015611889573d6000803e3d6000fd5b505050506040513d601f19601f820116820180604052508101906118ad9190612e99565b6118b79190612f07565b6118c19084612ee5565b6118cb9088612f1a565b6118d59190612f07565b90506000811161191b5760405162461bcd60e51b81526020600482015260116024820152701b9bc81d1bdad95b9cc81d1bc81cd95b1b607a1b60448201526064016103c3565b6040516323b872dd60e01b81526001600160a01b038516906323b872dd9061194b90339030908690600401612da9565b6020604051808303816000875af115801561196a573d6000803e3d6000fd5b505050506040513d601f19601f8201168201806040525081019061198e9190612dcd565b6119d15760405162461bcd60e51b815260206004820152601460248201527318dbdcdd081d1c985b9cd9995c8819985a5b195960621b60448201526064016103c3565b60405163079cc67960e41b81526001600160a01b038416906379cc6790906119ff9030908a90600401612cd8565b6020604051808303816000875af1158015611a1e573d6000803e3d6000fd5b505050506040513d601f19601f82011682018060405250810190611a429190612dcd565b5060405163079cc67960e41b81526001600160a01b038516906379cc679090611a719030908a90600401612cd8565b6020604051808303816000875af1158015611a90573d6000803e3d6000fd5b505050506040513d601f19601f82011682018060405250810190611ab49190612dcd565b5060405163a9059cbb60e01b81526001600160a01b037f0000000000000000000000000000000000000000000000000000000000000000169063a9059cbb90611b039033908a90600401612cd8565b6020604051808303816000875af1158015611b22573d6000803e3d6000fd5b505050506040513d601f19601f82011682018060405250810190611b469190612dcd565b611b925760405162461bcd60e51b815260206004820152601860248201527f63757272656e6379207472616e73666572206661696c6564000000000000000060448201526064016103c3565b60038501546040516370a0823160e01b81523060048201526001600160a01b03909116906370a0823190602401602060405180830381865afa158015611bdc573d6000803e3d6000fd5b505050506040513d601f19601f82011682018060405250810190611c009190612e99565b60028601546040516370a0823160e01b81523060048201526001600160a01b03909116906370a0823190602401602060405180830381865afa158015611c4a573d6000803e3d6000fd5b505050506040513d601f19601f82011682018060405250810190611c6e9190612e99565b611c789190612ec8565b8214611cbb5760405162461bcd60e51b81526020600482015260126024820152711a5b9d985c9a585b9d081d9a5bdb185d195960721b60448201526064016103c3565b604080518781526020810183905233918a917fe9799309f59de27f965e4926e539da66a9f5392dc8a606fac440d2de5a4a7d909101610fab565b6040805160e0810182526000808252602080830182905282840182905260608084018390526080840181905260a0840181905260c0840152848252819052828120600281015493516370a0823160e01b81523060048201529293919283926001600160a01b0316906370a0823190602401602060405180830381865afa158015611d83573d6000803e3d6000fd5b505050506040513d601f19601f82011682018060405250810190611da79190612e99565b600086815260208190526040908190206003015490516370a0823160e01b81523060048201526001600160a01b03909116906370a0823190602401602060405180830381865afa158015611dff573d6000803e3d6000fd5b505050506040513d601f19601f82011682018060405250810190611e239190612e99565b6040805160e081018252845460ff16151581526001850154602082015260028501546001600160a01b03908116928201929092526003850154909116606082015260048401805485916080840191611e7a90612dea565b80601f0160208091040260200160405190810160405280929190818152602001828054611ea690612dea565b8015611ef35780601f10611ec857610100808354040283529160200191611ef3565b820191906000526020600020905b815481529060010190602001808311611ed657829003601f168201915b50505050508152602001600582018054611f0c90612dea565b80601f0160208091040260200160405190810160405280929190818152602001828054611f3890612dea565b8015611f855780601f10611f5a57610100808354040283529160200191611f85565b820191906000526020600020905b815481529060010190602001808311611f6857829003601f168201915b50505050508152602001600682018054611f9e90612dea565b80601f0160208091040260200160405190810160405280929190818152602001828054611fca90612dea565b80156120175780601f10611fec57610100808354040283529160200191612017565b820191906000526020600020905b815481529060010190602001808311611ffa57829003601f168201915b50505050508152505092509250925092509193909250565b60008451116120765760405162461bcd60e51b8152602060048201526013602482015272456d707479206669727374206f7574636f6d6560681b60448201526064016103c3565b60008351116120be5760405162461bcd60e51b8152602060048201526014602482015273456d707479207365636f6e64206f7574636f6d6560601b60448201526064016103c3565b82805190602001208480519060200120036121135760405162461bcd60e51b81526020600482015260156024820152744f7574636f6d657320617265207468652073616d6560581b60448201526064016103c3565b60008251116121585760405162461bcd60e51b815260206004820152601160248201527022b6b83a3c903232b9b1b934b83a34b7b760791b60448201526064016103c3565b6000818152602081905260409020600201546001600160a01b0316156121b85760405162461bcd60e51b81526020600482015260156024820152744d61726b657420616c72656164792065786973747360581b60448201526064016103c3565b6000846040516020016121cb9190612f2d565b60405160208183030381529060405260126040516121e890612895565b6121f3929190612f57565b604051809103906000f08015801561220f573d6000803e3d6000fd5b5090506000846040516020016122259190612f2d565b604051602081830303815290604052601260405161224290612895565b61224d929190612f99565b604051809103906000f080158015612269573d6000803e3d6000fd5b50604051634c1d96ab60e11b81523060048201529091506001600160a01b0383169063983b2d5690602401600060405180830381600087803b1580156122ae57600080fd5b505af11580156122c2573d6000803e3d6000fd5b5050604051634c1d96ab60e11b81523060048201526001600160a01b038416925063983b2d569150602401600060405180830381600087803b15801561230757600080fd5b505af115801561231b573d6000803e3d6000fd5b5050604051637a231bdd60e11b81523060048201526001600160a01b038516925063f44637ba9150602401600060405180830381600087803b15801561236057600080fd5b505af1158015612374573d6000803e3d6000fd5b5050604051637a231bdd60e11b81523060048201526001600160a01b038416925063f44637ba9150602401600060405180830381600087803b1580156123b957600080fd5b505af11580156123cd573d6000803e3d6000fd5b505050506040518060e001604052806000151581526020016000801b8152602001836001600160a01b03168152602001826001600160a01b031681526020018781526020018681526020018581525060008085815260200190815260200160002060008201518160000160006101000a81548160ff0219169083151502179055506020820151816001015560408201518160020160006101000a8154816001600160a01b0302191690836001600160a01b0316021790555060608201518160030160006101000a8154816001600160a01b0302191690836001600160a01b0316021790555060808201518160040190816124c79190613029565b5060a082015160058201906124dc9082613029565b5060c082015160068201906124f19082613029565b50905050827e1a900d3a53cdded8bc2defafe3bb4a0fb2a42921ba4993b1e7d9dc9475a81c878787868660405161252c9594939291906130e8565b60405180910390a2505050505050565b6000828152600160208181526040808420909201548352829052902081156125a957805460ff1916600190811782556000848152602082905260408082209092015491517fe9146184308c5e4b8f243047cc6f81dce88e004d7980502e123b02f887ab51449190a26125b1565b600060018201555b50506000908152600160208190526040822080546001600160a01b03191681550155565b61262b8363a9059cbb60e01b84846040516024016125f4929190612cd8565b60408051601f198184030181529190526020810180516001600160e01b03166001600160e01b031990931692909217909152612630565b505050565b6000612685826040518060400160405280602081526020017f5361666545524332303a206c6f772d6c6576656c2063616c6c206661696c6564815250856001600160a01b03166127059092919063ffffffff16565b90508051600014806126a65750808060200190518101906126a69190612dcd565b61262b5760405162461bcd60e51b815260206004820152602a60248201527f5361666545524332303a204552433230206f7065726174696f6e20646964206e6044820152691bdd081cdd58d8d9595960b21b60648201526084016103c3565b6060612714848460008561271c565b949350505050565b60608247101561277d5760405162461bcd60e51b815260206004820152602660248201527f416464726573733a20696e73756666696369656e742062616c616e636520666f6044820152651c8818d85b1b60d21b60648201526084016103c3565b600080866001600160a01b031685876040516127999190613147565b60006040518083038185875af1925050503d80600081146127d6576040519150601f19603f3d011682016040523d82523d6000602084013e6127db565b606091505b50915091506127ec878383876127f7565b979650505050505050565b6060831561286657825160000361285f576001600160a01b0385163b61285f5760405162461bcd60e51b815260206004820152601d60248201527f416464726573733a2063616c6c20746f206e6f6e2d636f6e747261637400000060448201526064016103c3565b5081612714565b612714838381511561287b5781518083602001fd5b8060405162461bcd60e51b81526004016103c391906128f2565b611ab78061316483390190565b60005b838110156128bd5781810151838201526020016128a5565b50506000910152565b600081518084526128de8160208601602086016128a2565b601f01601f19169290920160200192915050565b60208152600061290560208301846128c6565b9392505050565b634e487b7160e01b600052604160045260246000fd5b600082601f83011261293357600080fd5b813567ffffffffffffffff81111561294d5761294d61290c565b604051601f8201601f19908116603f0116810167ffffffffffffffff8111828210171561297c5761297c61290c565b60405281815283820160200185101561299457600080fd5b816020850160208301376000918101602001919091529392505050565b600080600080600060a086880312156129c957600080fd5b853567ffffffffffffffff8111156129e057600080fd5b6129ec88828901612922565b955050602086013567ffffffffffffffff811115612a0957600080fd5b612a1588828901612922565b945050604086013567ffffffffffffffff811115612a3257600080fd5b612a3e88828901612922565b9598949750949560608101359550608001359392505050565b60008060408385031215612a6a57600080fd5b82359150602083013567ffffffffffffffff811115612a8857600080fd5b612a9485828601612922565b9150509250929050565b600060208284031215612ab057600080fd5b5035919050565b8715158152602081018790526001600160a01b0386811660408301528516606082015260e060808201819052600090612af2908301866128c6565b82810360a0840152612b0481866128c6565b905082810360c0840152612b1881856128c6565b9a9950505050505050505050565b600080600060608486031215612b3b57600080fd5b8335925060208401356001600160a01b0381168114612b5957600080fd5b929592945050506040919091013590565b60008060408385031215612b7d57600080fd5b50508035926020909101359150565b606080825284511515828201526020850151608083015260408501516001600160a01b031660a0830152840151600090612bd160c08401826001600160a01b03169052565b50608085015160e080840152612beb6101408401826128c6565b905060a0860151605f1984830301610100850152612c0982826128c6565b91505060c0860151605f1984830301610120850152612c2882826128c6565b602085019690965250505060400152919050565b60008060008060808587031215612c5257600080fd5b843567ffffffffffffffff811115612c6957600080fd5b612c7587828801612922565b945050602085013567ffffffffffffffff811115612c9257600080fd5b612c9e87828801612922565b935050604085013567ffffffffffffffff811115612cbb57600080fd5b612cc787828801612922565b949793965093946060013593505050565b6001600160a01b03929092168252602082015260400190565b80151581146102b257600080fd5b60008060408385031215612d1257600080fd5b823591506020830135612d2481612cf1565b809150509250929050565b608081526000612d4260808301876128c6565b8281036020840152612d5481876128c6565b90508281036040840152612d6881866128c6565b91505082606083015295945050505050565b60208082526015908201527413585c9ad95d08191bd95cc81b9bdd08195e1a5cdd605a1b604082015260600190565b6001600160a01b039384168152919092166020820152604081019190915260600190565b600060208284031215612ddf57600080fd5b815161290581612cf1565b600181811c90821680612dfe57607f821691505b602082108103612e1e57634e487b7160e01b600052602260045260246000fd5b50919050565b6000808354612e3281612dea565b600182168015612e495760018114612e5e57612e8e565b60ff1983168652811515820286019350612e8e565b86600052602060002060005b83811015612e8657815488820152600190910190602001612e6a565b505081860193505b509195945050505050565b600060208284031215612eab57600080fd5b5051919050565b634e487b7160e01b600052601160045260246000fd5b8082028115828204841417612edf57612edf612eb2565b92915050565b600082612f0257634e487b7160e01b600052601260045260246000fd5b500490565b81810381811115612edf57612edf612eb2565b80820180821115612edf57612edf612eb2565b60008251612f3f8184602087016128a2565b65102a37b5b2b760d11b920191825250600601919050565b606081526000612f6a60608301856128c6565b8281036020840152600381526213cc5560ea1b60208201526040810191505060ff831660408301529392505050565b606081526000612fac60608301856128c6565b8281036020840152600381526213cc9560ea1b60208201526040810191505060ff831660408301529392505050565b601f82111561262b57806000526020600020601f840160051c810160208510156130025750805b601f840160051c820191505b81811015613022576000815560010161300e565b5050505050565b815167ffffffffffffffff8111156130435761304361290c565b613057816130518454612dea565b84612fdb565b6020601f82116001811461308b57600083156130735750848201515b600019600385901b1c1916600184901b178455613022565b600084815260208120601f198516915b828110156130bb578785015182556020948501946001909201910161309b565b50848210156130d95786840151600019600387901b60f8161c191681555b50505050600190811b01905550565b60a0815260006130fb60a08301886128c6565b828103602084015261310d81886128c6565b9050828103604084015261312181876128c6565b6001600160a01b0395861660608501529390941660809092019190915250949350505050565b600082516131598184602087016128a2565b919091019291505056fe608060405234801561001057600080fd5b50604051611ab7380380611ab783398101604081905261002f916104f7565b8282600361003d83826105fb565b50600461004a82826105fb565b50506006805460ff191660ff84161790555061006860008033610095565b61008360015b604080516000808252602082019092526101cb565b61008d600261006e565b5050506106e5565b826000808281526005602052604090206001015460ff1660028111156100bd576100bd6106b9565b1461010f5760405162461bcd60e51b815260206004820152601e60248201527f43616e6e6f74207573652061207072652d6578697374696e6720726f6c65000060448201526064015b60405180910390fd5b60008481526005602052604090206001808201805460ff1916909117905583815561013d60028201846102f4565b60008481526005602052604081206001015460ff166002811115610163576101636106b9565b036101c45760405162461bcd60e51b815260206004820152603c6024820152600080516020611a9783398151915260448201527f20746f206d616e61676520616e206578636c757369766520726f6c65000000006064820152608401610106565b5050505050565b826000808281526005602052604090206001015460ff1660028111156101f3576101f36106b9565b146102405760405162461bcd60e51b815260206004820152601e60248201527f43616e6e6f74207573652061207072652d6578697374696e6720726f6c6500006044820152606401610106565b600084815260056020526040902060018101805460ff1916600217905583815561026d6003820184610302565b60008481526005602052604081206001015460ff166002811115610293576102936106b9565b036101c45760405162461bcd60e51b81526020600482015260386024820152600080516020611a9783398151915260448201527f20746f206d616e61676520612073686172656420726f6c6500000000000000006064820152608401610106565b6102fe8282610344565b5050565b60005b815181101561033f5761033783838381518110610324576103246106cf565b60200260200101516103c360201b60201c565b600101610305565b505050565b6001600160a01b0381166103a65760405162461bcd60e51b815260206004820152602360248201527f43616e6e6f742073657420616e206578636c757369766520726f6c6520746f2060448201526203078360ec1b6064820152608401610106565b81546001600160a01b0319166001600160a01b0391909116179055565b6001600160a01b0381166104195760405162461bcd60e51b815260206004820152601f60248201527f43616e6e6f74206164642030783020746f20612073686172656420726f6c65006044820152606401610106565b6001600160a01b0316600090815260209190915260409020805460ff19166001179055565b634e487b7160e01b600052604160045260246000fd5b600082601f83011261046557600080fd5b81516001600160401b0381111561047e5761047e61043e565b604051601f8201601f19908116603f011681016001600160401b03811182821017156104ac576104ac61043e565b6040528181528382016020018510156104c457600080fd5b60005b828110156104e3576020818601810151838301820152016104c7565b506000918101602001919091529392505050565b60008060006060848603121561050c57600080fd5b83516001600160401b0381111561052257600080fd5b61052e86828701610454565b602086015190945090506001600160401b0381111561054c57600080fd5b61055886828701610454565b925050604084015160ff8116811461056f57600080fd5b809150509250925092565b600181811c9082168061058e57607f821691505b6020821081036105ae57634e487b7160e01b600052602260045260246000fd5b50919050565b601f82111561033f57806000526020600020601f840160051c810160208510156105db5750805b601f840160051c820191505b818110156101c457600081556001016105e7565b81516001600160401b038111156106145761061461043e565b61062881610622845461057a565b846105b4565b6020601f82116001811461065c57600083156106445750848201515b600019600385901b1c1916600184901b1784556101c4565b600084815260208120601f198516915b8281101561068c578785015182556020948501946001909201910161066c565b50848210156106aa5786840151600019600387901b60f8161c191681555b50505050600190811b01905550565b634e487b7160e01b600052602160045260246000fd5b634e487b7160e01b600052603260045260246000fd5b6113a3806106f46000396000f3fe608060405234801561001057600080fd5b506004361061014d5760003560e01c806374d0a676116100c3578063a9059cbb1161007c578063a9059cbb146102be578063aaa14ca3146102d1578063ab3545e5146102e4578063d97c05be1461030f578063dd62ed3e14610322578063f44637ba1461033557600080fd5b806374d0a6761461025757806379cc67901461026a5780637cdc1cb91461027d57806395d89b4114610290578063983b2d5614610298578063a457c2d7146102ab57600080fd5b8063395093511161011557806339509351146101cd57806340c10f19146101e057806342966c68146101f35780636be7658b1461020857806370a082311461021b57806373cc802a1461024457600080fd5b806306fdde0314610152578063095ea7b31461017057806318160ddd1461019357806323b872dd146101a5578063313ce567146101b8575b600080fd5b61015a610348565b604051610167919061107f565b60405180910390f35b61018361017e3660046110e9565b6103da565b6040519015158152602001610167565b6002545b604051908152602001610167565b6101836101b3366004611113565b6103f4565b60065460405160ff9091168152602001610167565b6101836101db3660046110e9565b610418565b6101836101ee3660046110e9565b61043a565b610206610201366004611150565b610477565b005b610206610216366004611169565b6104ad565b610197610229366004611195565b6001600160a01b031660009081526020819052604090205490565b610206610252366004611195565b610583565b610206610265366004611169565b610591565b6101836102783660046110e9565b610667565b61018361028b366004611169565b61069b565b61015a610760565b6102066102a6366004611195565b61076f565b6101836102b93660046110e9565b61077b565b6101836102cc3660046110e9565b6107f6565b6102066102df366004611150565b610804565b6102f76102f2366004611150565b6108c0565b6040516001600160a01b039091168152602001610167565b61020661031d366004611169565b61092c565b6101976103303660046111b7565b610a02565b610206610343366004611195565b610a2d565b606060038054610357906111e1565b80601f0160208091040260200160405190810160405280929190818152602001828054610383906111e1565b80156103d05780601f106103a5576101008083540402835291602001916103d0565b820191906000526020600020905b8154815290600101906020018083116103b357829003601f168201915b5050505050905090565b6000336103e8818585610a37565b60019150505b92915050565b600033610402858285610b5c565b61040d858585610bd6565b506001949350505050565b6000336103e881858561042b8383610a02565b6104359190611215565b610a37565b60006001610448813361069b565b61046d5760405162461bcd60e51b81526004016104649061124c565b60405180910390fd5b6103e88484610d7a565b6002610483813361069b565b61049f5760405162461bcd60e51b81526004016104649061124c565b6104a93383610e39565b5050565b81600260008281526005602052604090206001015460ff1660028111156104d6576104d6611236565b146104f35760405162461bcd60e51b81526004016104649061128e565b600083815260056020526040902054839061050e903361069b565b61052a5760405162461bcd60e51b8152600401610464906112da565b60008481526005602052604090206105459060030184610f63565b60405133906001600160a01b0385169086907feb3e33034c392e69263b04ec0fa376dc12784a41b6676c7f31b936cbc0fbb5af90600090a450505050565b61058e60008261092c565b50565b81600260008281526005602052604090206001015460ff1660028111156105ba576105ba611236565b146105d75760405162461bcd60e51b81526004016104649061128e565b60008381526005602052604090205483906105f2903361069b565b61060e5760405162461bcd60e51b8152600401610464906112da565b60008481526005602052604090206106299060030184610f85565b60405133906001600160a01b0385169086907f63502af7324ff6db91ab38f8236a648727d9385ea6c782073dd4882d8a61a48f90600090a450505050565b60006002610675813361069b565b6106915760405162461bcd60e51b81526004016104649061124c565b6103e88484610e39565b600082815260056020526040812060018082015460ff1660028111156106c3576106c3611236565b036106e45760028101546001600160a01b038481169116145b9150506103ee565b6002600182015460ff1660028111156106ff576106ff611236565b03610727576001600160a01b038316600090815260038201602052604090205460ff166106dc565b60405162461bcd60e51b815260206004820152600e60248201526d125b9d985b1a59081c9bdb19525960921b6044820152606401610464565b606060048054610357906111e1565b61058e60015b82610591565b600033816107898286610a02565b9050838110156107e95760405162461bcd60e51b815260206004820152602560248201527f45524332303a2064656372656173656420616c6c6f77616e63652062656c6f77604482015264207a65726f60d81b6064820152608401610464565b61040d8286868403610a37565b6000336103e8818585610bd6565b80600260008281526005602052604090206001015460ff16600281111561082d5761082d611236565b1461084a5760405162461bcd60e51b81526004016104649061128e565b81610855813361069b565b6108715760405162461bcd60e51b81526004016104649061124c565b600083815260056020526040902061088c9060030133610f63565b6040513390819085907feb3e33034c392e69263b04ec0fa376dc12784a41b6676c7f31b936cbc0fbb5af90600090a4505050565b600081600160008281526005602052604090206001015460ff1660028111156108eb576108eb611236565b146109085760405162461bcd60e51b81526004016104649061131e565b6000838152600560205260409020600201546001600160a01b031691505b50919050565b81600160008281526005602052604090206001015460ff16600281111561095557610955611236565b146109725760405162461bcd60e51b81526004016104649061131e565b600083815260056020526040902054839061098d903361069b565b6109a95760405162461bcd60e51b8152600401610464906112da565b60008481526005602052604090206109c49060020184611000565b60405133906001600160a01b0385169086907f3b855c56b409b671c7112789d022675eb639d0bcb8896f1b6197c132f799e74690600090a450505050565b6001600160a01b03918216600090815260016020908152604080832093909416825291909152205490565b61058e6002610775565b6001600160a01b038316610a995760405162461bcd60e51b8152602060048201526024808201527f45524332303a20617070726f76652066726f6d20746865207a65726f206164646044820152637265737360e01b6064820152608401610464565b6001600160a01b038216610afa5760405162461bcd60e51b815260206004820152602260248201527f45524332303a20617070726f766520746f20746865207a65726f206164647265604482015261737360f01b6064820152608401610464565b6001600160a01b0383811660008181526001602090815260408083209487168084529482529182902085905590518481527f8c5be1e5ebec7d5bd14f71427d1e84f3dd0314c0f7b2291e5b200ac8c7c3b92591015b60405180910390a3505050565b6000610b688484610a02565b90506000198114610bd05781811015610bc35760405162461bcd60e51b815260206004820152601d60248201527f45524332303a20696e73756666696369656e7420616c6c6f77616e63650000006044820152606401610464565b610bd08484848403610a37565b50505050565b6001600160a01b038316610c3a5760405162461bcd60e51b815260206004820152602560248201527f45524332303a207472616e736665722066726f6d20746865207a65726f206164604482015264647265737360d81b6064820152608401610464565b6001600160a01b038216610c9c5760405162461bcd60e51b815260206004820152602360248201527f45524332303a207472616e7366657220746f20746865207a65726f206164647260448201526265737360e81b6064820152608401610464565b6001600160a01b03831660009081526020819052604090205481811015610d145760405162461bcd60e51b815260206004820152602660248201527f45524332303a207472616e7366657220616d6f756e7420657863656564732062604482015265616c616e636560d01b6064820152608401610464565b6001600160a01b03848116600081815260208181526040808320878703905593871680835291849020805487019055925185815290927fddf252ad1be2c89b69c2b068fc378daa952ba7f163c4a11628f55a4df523b3ef910160405180910390a3610bd0565b6001600160a01b038216610dd05760405162461bcd60e51b815260206004820152601f60248201527f45524332303a206d696e7420746f20746865207a65726f2061646472657373006044820152606401610464565b8060026000828254610de29190611215565b90915550506001600160a01b038216600081815260208181526040808320805486019055518481527fddf252ad1be2c89b69c2b068fc378daa952ba7f163c4a11628f55a4df523b3ef910160405180910390a35050565b6001600160a01b038216610e995760405162461bcd60e51b815260206004820152602160248201527f45524332303a206275726e2066726f6d20746865207a65726f206164647265736044820152607360f81b6064820152608401610464565b6001600160a01b03821660009081526020819052604090205481811015610f0d5760405162461bcd60e51b815260206004820152602260248201527f45524332303a206275726e20616d6f756e7420657863656564732062616c616e604482015261636560f01b6064820152608401610464565b6001600160a01b0383166000818152602081815260408083208686039055600280548790039055518581529192917fddf252ad1be2c89b69c2b068fc378daa952ba7f163c4a11628f55a4df523b3ef9101610b4f565b6001600160a01b0316600090815260209190915260409020805460ff19169055565b6001600160a01b038116610fdb5760405162461bcd60e51b815260206004820152601f60248201527f43616e6e6f74206164642030783020746f20612073686172656420726f6c65006044820152606401610464565b6001600160a01b0316600090815260209190915260409020805460ff19166001179055565b6001600160a01b0381166110625760405162461bcd60e51b815260206004820152602360248201527f43616e6e6f742073657420616e206578636c757369766520726f6c6520746f2060448201526203078360ec1b6064820152608401610464565b81546001600160a01b0319166001600160a01b0391909116179055565b602081526000825180602084015260005b818110156110ad5760208186018101516040868401015201611090565b506000604082850101526040601f19601f83011684010191505092915050565b80356001600160a01b03811681146110e457600080fd5b919050565b600080604083850312156110fc57600080fd5b611105836110cd565b946020939093013593505050565b60008060006060848603121561112857600080fd5b611131846110cd565b925061113f602085016110cd565b929592945050506040919091013590565b60006020828403121561116257600080fd5b5035919050565b6000806040838503121561117c57600080fd5b8235915061118c602084016110cd565b90509250929050565b6000602082840312156111a757600080fd5b6111b0826110cd565b9392505050565b600080604083850312156111ca57600080fd5b6111d3836110cd565b915061118c602084016110cd565b600181811c908216806111f557607f821691505b60208210810361092657634e487b7160e01b600052602260045260246000fd5b808201808211156103ee57634e487b7160e01b600052601160045260246000fd5b634e487b7160e01b600052602160045260246000fd5b60208082526022908201527f53656e64657220646f6573206e6f7420686f6c6420726571756972656420726f6040820152616c6560f01b606082015260800190565b6020808252602c908201527f4d7573742062652063616c6c6564206f6e20616e20696e697469616c697a656460408201526b2053686172656420726f6c6560a01b606082015260800190565b60208082526024908201527f43616e206f6e6c792062652063616c6c6564206279206120726f6c65206d616e60408201526330b3b2b960e11b606082015260800190565b6020808252602f908201527f4d7573742062652063616c6c6564206f6e20616e20696e697469616c697a656460408201526e204578636c757369766520726f6c6560881b60608201526080019056fea26469706673582212203023a7eb20df923aef9f2862efae26498516ec31027c4858ae457e15147c178a64736f6c634300081c0033417474656d7074656420746f2075736520616e20696e76616c696420726f6c65a2646970667358221220a84c999a0e267aa9c49d2f1ab961cb19ed46c5e0e1e2251a7349f03d3d1c9bca64736f6c634300081c0033","linkReferences":{}},"methodIdentifiers":{"assertMarket(bytes32,string)":"565429a8","assertedMarkets(bytes32)":"d4107645","assertionDisputedCallback(bytes32)":"d448a4ec","assertionLiveness()":"b75d4e24","assertionResolvedCallback(bytes32,bool)":"f1b156b2","buy(bytes32,address,uint256)":"78133ffd","createOutcomeTokens(bytes32,uint256)":"9d5bacfd","currency()":"e5a6b10f","defaultIdentifier()":"d509b017","getMarket(bytes32)":"c3c95c7b","initializeMarket(string,string,string,bytes32)":"c7d8941f","initializeMarketAndCreateOutcomeTokens(string,string,string,bytes32,uint256)":"37aa9040","markets(bytes32)":"7564912b","redeemOutcomeTokens(bytes32,uint256)":"9d2edf46","sell(bytes32,address,uint256)":"b6365817","settleOutcomeTokens(bytes32)":"acd98e29","unresolvable()":"0880c65a"},"id":30}